:100000000C942A000C943F000C943F000C943F0089
:100010000C943F000C943F000C943F000C943F0064
:100020000C943F000C943F000C943F000C943F0054
:100030000C943F000C943F000C943F000C943F0044
:100040000C943F000C943F000C943F000C943F0034
:100050000C943F0011241FBECFE5D8E0DEBFCDBF1A
:1000600011E0A0E6B0E0EAEAFFE302C005900D92DD
:10007000AA3FB107D9F70E94611E0C94D31F0C94BC
:100080000000EF92FF920F931F937B018C0120E001
:1000900030E040E05FE40E94ED0388238CF0C8016B
:1000A000B70120E030E040E05FE40E94B9010E9427
:1000B0004D049B01AC01205030404040504806C0E8
:1000C000C801B7010E944D049B01AC01B901CA01EE
:1000D0001F910F91FF90EF900895A0E0B0E0E3E74B
:1000E000F0E00C949C1FDC012B01FA019C919230F2
:1000F00008F439C1EB018881823008F433C19430AF
:1001000069F4843009F02FC111969C91119789816F
:10011000981709F428C1A2EFB0E025C1843009F492
:1001200021C18230A9F4923009F01DC19A01AD01BC
:1001300088E0EA010990AE01E90109929E0181502F
:10014000C1F7E201898111969C918923818308C1BD
:10015000923009F407C112962D903C901397EB0151
:100160008A819B811496AD90BD90CD90DC901797BD
:10017000EC80FD800E811F819101281B390BB90194
:1001800037FF04C066277727621B730B6032710547
:100190000CF061C0121613066CF537014801062EEB
:1001A00004C096948794779467940A94D2F721E0D8
:1001B00030E040E050E004C0220F331F441F551FC1
:1001C0006A95D2F721503040404050402E213F21C7
:1001D00040235123211531054105510521F021E02E
:1001E00030E040E050E079018A01E628F72808294C
:1001F00019293CC0232BD1F1260E371E35014601AB
:10020000062E04C096948794779467940A94D2F744
:1002100021E030E040E050E004C0220F331F441FD3
:10022000551F6A95D2F721503040404050402A2156
:100230003B214C215D21211531054105510521F05E
:1002400021E030E040E050E059016A01A628B728DB
:10025000C828D9280BC0821593052CF01C01AA24AC
:10026000BB24650103C0EE24FF24870111969C91F5
:10027000D20111968C91981709F445C0992339F051
:10028000A80197012A193B094C095D0906C0A6017E
:1002900095012E193F09400B510B57FD08C01182E3
:1002A0003382228224833583468357831DC081E0B5
:1002B00081833382228288279927DC01821B930B5A
:1002C000A40BB50B84839583A683B7830DC0220F3F
:1002D000331F441F551F24833583468357838281F0
:1002E000938101979383828324813581468157814D
:1002F000DA01C9010197A109B1098F5F9F4FAF4F83
:10030000BF4328F30BC0918333822282EA0CFB1C8B
:100310000C1D1D1DE482F5820683178383E0808314
:10032000248135814681578157FF1AC0C901AA2708
:1003300097FDA095BA2F81709070A070B0705695FF
:10034000479537952795822B932BA42BB52B848328
:100350009583A683B7838281938101969383828359
:10036000DF0101C0D201CD01CDB7DEB7E2E10C94CF
:10037000B81FA0E2B0E0EFEBF1E00C94A81F698396
:100380007A838B839C832D833E834F835887E9E058
:10039000EE2EF12CEC0EFD1ECE010196B7010E944F
:1003A0003E068E010F5E1F4FCE010596B8010E94DA
:1003B0003E068A8991E089278A8BC701B801AE0180
:1003C000475E5F4F0E946D000E946905A096E6E0BF
:1003D0000C94C41FA0E2B0E0E0EFF1E00C94A81F81
:1003E00069837A838B839C832D833E834F835887D5
:1003F000F9E0EF2EF12CEC0EFD1ECE010196B701B7
:100400000E943E068E010F5E1F4FCE010596B80179
:100410000E943E06C701B801AE01475E5F4F0E94D1
:100420006D000E946905A096E6E00C94C41FA0E24E
:10043000B0E0EDE1F2E00C949C1F69837A838B833A
:100440009C832D833E834F835887CE010196BE0146
:10045000675F7F4F0E943E06CE010596BE016F5E2C
:100460007F4F0E943E069985923088F089898230BC
:10047000C8F0943019F4823051F404C0843029F467
:10048000923081F482EF90E0C6C0923049F420E0CF
:100490009A858A89981321E02A87CE010996BBC0E4
:1004A000823049F420E09A858A89981321E02A8BCA
:1004B000CE014196B0C02D843E844F8458886D880B
:1004C0007E888F88988CEE24FF248701AA24BB2481
:1004D000650140E050E060E070E0E0E0F0E0C10184
:1004E00081709070892BE9F0E60CF71C081D191D2E
:1004F0009A01AB012A0D3B1D4C1D5D1D80E090E073
:10050000A0E0B0E0E614F7040805190520F481E046
:1005100090E0A0E0B0E0BA01A901480F591F6A1F9E
:100520007B1FAA0CBB1CCC1CDD1C97FE08C081E005
:1005300090E0A0E0B0E0A82AB92ACA2ADB2A3196C6
:10054000E032F10549F0660C771C881C991C569422
:10055000479437942794C3CFFA85EA892B893C893D
:100560008B859C85280F391F2E5F3F4F17C0CA010E
:1005700081709070892B61F016950795F794E79438
:1005800080E090E0A0E0B0E8E82AF92A0A2B1B2BD3
:1005900076956795579547952F5F3F4F77FDE7CF46
:1005A0000CC0440F551F661F771F17FD4160EE0CEE
:1005B000FF1C001F111F21503040403090E05907B0
:1005C00090E0690790E4790760F32B8F3C8FDB01A3
:1005D000CA018F779070A070B07080349105A1052A
:1005E000B10561F447FD0AC0E114F10401051105EC
:1005F00029F0405C5F4F6F4F7F4F40781A8EFE1797
:1006000011F081E08A8F4D8F5E8F6F8F78A383E02A
:10061000898FCE0149960E946905A096E2E10C946B
:10062000B81FA8E1B0E0E7E1F3E00C94A41F6983F0
:100630007A838B839C832D833E834F835887B9E0D5
:10064000EB2EF12CEC0EFD1ECE010196B7010E949F
:100650003E068E010F5E1F4FCE010596B8010E9427
:100660003E062985223008F47EC03989323010F4E4
:10067000B8017CC08A859A8989278A87243011F03D
:10068000223031F4231709F06EC062EF70E06EC0C3
:10069000343039F41D861E861F86188A1C861B86F8
:1006A00004C0323021F484E08987B7015FC02B8514
:1006B0003C858B899C89281B390B3C872B87ED84D3
:1006C000FE840F851889AD88BE88CF88D88CEA143F
:1006D000FB040C051D0540F4EE0CFF1C001F111F50
:1006E000215030403C872B8720E030E040E050E054
:1006F00080E090E0A0E0B0E460E070E0EA14FB0489
:100700000C051D0540F0282B392B4A2B5B2BEA18D2
:10071000FB080C091D09B695A79597958795EE0CD2
:10072000FF1C001F111F6F5F7F4F6F31710531F785
:10073000DA01C9018F779070A070B0708034910594
:10074000A105B10561F427FD0AC0E114F10401051A
:10075000110529F0205C3F4F4F4F5F4F20782D87C8
:100760003E874F87588BBE01675F7F4FCB010E944A
:1007700069056896EAE00C94C01FA8E1B0E0E3ECDC
:10078000F3E00C94A81F69837A838B839C832D8369
:100790003E834F83588789E0E82EF12CEC0EFD1E36
:1007A000CE010196B7010E943E068E010F5E1F4FDB
:1007B000CE010596B8010E943E068985823040F040
:1007C0008989823028F0C701B8010E94B60601C0AD
:1007D0008FEF6896E6E00C94C41FA8E1B0E0E3EF69
:1007E000F3E00C94A81F69837A838B839C832D8309
:1007F0003E834F83588789E0E82EF12CEC0EFD1ED6
:10080000CE010196B7010E943E068E010F5E1F4F7A
:10081000CE010596B8010E943E068985823040F0DF
:100820008989823028F0C701B8010E94B60601C04C
:100830008FEF6896E6E00C94C41FA8E1B0E0E3E215
:10084000F4E00C94A81F69837A838B839C832D83A7
:100850003E834F83588789E0E82EF12CEC0EFD1E75
:10086000CE010196B7010E943E068E010F5E1F4F1A
:10087000CE010596B8010E943E068985823040F07F
:100880008989823028F0C701B8010E94B60601C0EC
:1008900081E06896E6E00C94C41FACE0B0E0E3E5CC
:1008A000F4E00C94AC1F69837A838B839C83CE0124
:1008B0000196BE016B5F7F4F0E943E068D818230A4
:1008C00061F1823050F1843021F48E81882351F11E
:1008D0002EC02F81388537FD20C06E812F31310524
:1008E0001CF06623F9F023C08EE190E0821B930B8D
:1008F00029853A854B855C8504C056954795379583
:1009000027958A95D2F76623B1F05095409530959A
:1009100021953F4F4F4F5F4F0EC020E030E040E049
:1009200050E009C02FEF3FEF4FEF5FE704C020E03A
:1009300030E040E050E8B901CA012C96E2E00C94A6
:10094000C81FA8E0B0E0E7EAF4E00C94A41F7B0124
:100950008C01611571058105910519F482E0898387
:1009600060C083E089838EE1C82ED12CDC82CB82EB
:10097000ED82FE820F831887C801B7010E941A0515
:10098000FC013197F7FF3BC0222733272E1B3F0B7B
:1009900057016801022E04C0D694C794B794A79457
:1009A0000A94D2F740E050E060E070E081E090E02F
:1009B000A0E0B0E004C0880F991FAA1FBB1F2A95B2
:1009C000D2F70197A109B1098E219F21A023B1235C
:1009D0000097A105B10521F041E050E060E070E032
:1009E0004A295B296C297D294D835E836F83788733
:1009F0008EE190E08E1B9F0B9C838B8312C03097FF
:100A000081F00E2E04C0EE0CFF1C001F111F0A9473
:100A1000D2F7ED82FE820F831887CE1ADF0ADC82BE
:100A2000CB821A82CE0101960E9469052896EAE0DF
:100A30000C94C01FEF92FF920F931F937B018C01C8
:100A400080E0E81680E0F80681E0080780E01807FB
:100A500088F48FEFE816F1040105110531F028F054
:100A600088E090E0A0E0B0E017C080E090E0A0E077
:100A7000B0E012C080E0E81680E0F80680E00807E9
:100A800081E0180728F088E190E0A0E0B0E004C021
:100A900080E190E0A0E0B0E020E230E040E050E013
:100AA000281B390B4A0B5B0B04C016950795F7946E
:100AB000E7948A95D2F7F701E650FF4F8081281B13
:100AC000310941095109C9011F910F91FF90EF9020
:100AD0000895DF92EF92FF920F931F93FC01E48041
:100AE000F58006811781D1808081823048F480E0D2
:100AF00090E0A0E1B0E0E82AF92A0A2B1B2BA5C060
:100B0000843009F49FC0823021F4EE24FF24870151
:100B100005C0E114F1040105110519F4E0E0F0E06D
:100B200096C0628173819FEF623879070CF05BC0D9
:100B300022E83FEF261B370B2A3131052CF020E04D
:100B400030E040E050E02AC0B801A701022E04C006
:100B500076956795579547950A94D2F781E090E08E
:100B6000A0E0B0E004C0880F991FAA1FBB1F2A9500
:100B7000D2F70197A109B1098E219F21A023B123AA
:100B80000097A105B10521F081E090E0A0E0B0E080
:100B90009A01AB01282B392B4A2B5B2BDA01C901B7
:100BA0008F779070A070B07080349105A105B10569
:100BB00039F427FF09C0205C3F4F4F4F5F4F04C0FF
:100BC000215C3F4F4F4F5F4FE0E0F0E02030A0E06E
:100BD0003A07A0E04A07A0E45A0710F0E1E0F0E08D
:100BE00079018A0127C06038710564F5FB01E1587D
:100BF000FF4FD801C7018F779070A070B07080341C
:100C00009105A105B10539F4E7FE0DC080E490E03F
:100C1000A0E0B0E004C08FE390E0A0E0B0E0E80E18
:100C2000F91E0A1F1B1F17FF05C016950795F7949D
:100C3000E794319687E016950795F794E7948A959F
:100C4000D1F705C0EE24FF248701EFEFF0E06E2F0F
:100C5000679566276795902F9F77D794DD24D79463
:100C60008E2F8695492F462B582F5D29B701CA0133
:100C70001F910F91FF90EF90DF900895FC01DB0131
:100C8000408151812281622F6F7770E0221F2227DD
:100C9000221F9381892F880F822B282F30E0991FE4
:100CA0009927991F11969C93119721153105A9F544
:100CB000411551056105710511F482E037C082E8E4
:100CC0009FEF13969C938E9312979A01AB0167E066
:100CD000220F331F441F551F6A95D1F783E08C9371
:100CE0000DC0220F331F441F551F12968D919C91EA
:100CF0001397019713969C938E931297203080E060
:100D0000380780E0480780E4580758F314962D937D
:100D10003D934D935C93179708952F3F310579F4D8
:100D2000411551056105710519F484E08C9308950E
:100D300064FF03C081E08C9312C01C9210C02F5737
:100D4000304013963C932E93129783E08C9387E068
:100D5000440F551F661F771F8A95D1F7706414964C
:100D60004D935D936D937C93179708951F93DC01CA
:100D7000FB019C91923008F447C08081823008F4D6
:100D800043C0943051F411961C91843099F58181BF
:100D9000682F70E0611B71093FC0843021F09230F0
:100DA00031F48230B9F18181882389F12DC0119607
:100DB0001C9111978230F1F081811817D9F41296A5
:100DC0002D913C911397828193818217930794F020
:100DD00028173907BCF014968D919D910D90BC9108
:100DE000A02D2481358146815781281739074A076C
:100DF0005B0718F4112341F00AC082179307A40778
:100E0000B50740F4112319F061E070E005C06FEF01
:100E10007FEF02C060E070E0CB011F910895DF9387
:100E2000CF93CDB7DEB72D970FB6F894DEBF0FBEC8
:100E3000CDBF198618861F821E821D821C821B82CE
:100E40001A820E94F00F898389818031D1F38981D0
:100E5000882339F41D821C821B821A820E94B510DD
:100E6000F0CF8D81882389F481E08D8389810E9470
:100E7000F00789878985992787FD9095A92FB92F34
:100E8000BC01CD010E941911DCCF8B81882389F52B
:100E900081E08B838981282F30E03D872C878C85EA
:100EA0009D8587309105C9F02C853D852830310519
:100EB00034F48C859D858330910561F016C02C85B6
:100EC0003D852B30310561F08C859D858F309105F6
:100ED00051F00BC08BE28F8308C08DE28F8305C079
:100EE0008AE28F8302C08FE28F838F810E94BF10BE
:100EF000A8CF8C81882389F481E08C8389810E942A
:100F0000F00788878885992787FD9095A92FB92FA5
:100F1000BC01CD010E94191194CF8A81882309F068
:100F200090CF8981823009F08CCF81E08A838F81D4
:100F3000282F332727FD30953B872A878A859B8575
:100F40008B329105B1F02A853B852C32310534F482
:100F50008A859B858A329105B1F02CC02A853B8514
:100F60002D32310559F08A859B858F32910591F09C
:100F700021C089859885890F8E831CC089859885B5
:100F8000891B8E8317C089859885899F802D1124A0
:100F90008E8310C08985482F552747FD5095888539
:100FA000282F332727FD3095CA01B9010E94381F29
:100FB000CB018E838DE30E94BF1081E060E00E9430
:100FC000F51080E690E00E94CC108E81992787FD75
:100FD0009095A92FB92FBC01CD010E94191131CFD5
:100FE000DF93CF9300D000D0CDB7DEB78A831982CC
:100FF0008A81282F30E03C832B838B819C81883031
:10100000910509F44BC02B813C8129303105DCF47A
:101010008B819C8184309105C1F12B813C812530ED
:10102000310534F48B819C818130910561F147C099
:101030002B813C812530310559F18B819C81863093
:10104000910549F13CC02B813C812C30310579F16F
:101050008B819C818D3091055CF42B813C81293002
:101060003105F9F08B819C818A309105E9F027C028
:101070002B813C812D303105E9F08B819C818E30B4
:101080009105D9F01CC019821AC081E0898317C06C
:1010900082E0898314C083E0898311C084E089835E
:1010A0000EC085E089830BC086E0898308C087E095
:1010B000898305C088E0898302C089E089838981AA
:1010C0000F900F900F900F90CF91DF910895DF93C5
:1010D000CF9300D000D0CDB7DEB789836A838981F2
:1010E000282F30E03C832B838B819C8181309105BC
:1010F000D1F02B813C81223031052CF48B819C81F5
:10110000009761F01EC02B813C812230310581F0B7
:101110008B819C818330910581F013C0EBE3F0E07B
:101120008A8180830EC0E8E3F0E08A81808309C071
:10113000E5E3F0E08A81808304C0E2E3F0E08A81A5
:1011400080830F900F900F900F90CF91DF910895B3
:10115000DF93CF93CDB7DEB729970FB6F894DEBFF4
:101160000FBECDBF89836A834B838B81882309F0AF
:10117000C2C08981282F30E03987288788859985E2
:101180008130910509F43FC0288539852230310529
:101190002CF488859985009771F0E1C128853985FF
:1011A0002230310509F457C088859985833091052F
:1011B00009F479C0D4C1AAE3B0E0EAE3F0E08081A9
:1011C000482F8A81282F30E081E090E002C0880F0C
:1011D000991F2A95E2F7809584238C93ABE3B0E0C6
:1011E000EBE3F0E08081482F8A81282F30E081E016
:1011F00090E0022E02C0880F991F0A94E2F78095B2
:1012000084238C93ACC1A7E3B0E0E7E3F0E08081F6
:10121000482F8A81282F30E081E090E002C0880FBB
:10122000991F2A95E2F7809584238C93A8E3B0E078
:10123000E8E3F0E08081482F8A81282F30E081E0C8
:1012400090E0022E02C0880F991F0A94E2F7809561
:1012500084238C9384C1A4E3B0E0E4E3F0E08081D4
:10126000482F8A81282F30E081E090E002C0880F6B
:10127000991F2A95E2F7809584238C93A5E3B0E02B
:10128000E5E3F0E08081482F8A81282F30E081E07B
:1012900090E0022E02C0880F991F0A94E2F7809511
:1012A00084238C935CC1A1E3B0E0E1E3F0E08081B2
:1012B000482F8A81282F30E081E090E002C0880F1B
:1012C000991F2A95E2F7809584238C93A2E3B0E0DE
:1012D000E2E3F0E08081482F8A81282F30E081E02E
:1012E00090E0022E02C0880F991F0A94E2F78095C1
:1012F00084238C9334C18B81813009F0BEC08981F5
:10130000282F30E03F832E838E819F81813091058D
:1013100009F43EC02E813F81223031052CF48E81AC
:101320009F81009771F01BC12E813F8122303105D2
:1013300009F455C08E819F818330910509F476C0F0
:101340000EC1AAE3B0E0EAE3F0E08081482F8A8191
:10135000282F30E081E090E002C0880F991F2A9585
:10136000E2F7809584238C93ABE3B0E0EBE3F0E00D
:101370008081482F8A81282F30E081E090E0022E82
:1013800002C0880F991F0A94E2F7842B8C93E7C060
:10139000A7E3B0E0E7E3F0E08081482F8A81282FBF
:1013A00030E081E090E002C0880F991F2A95E2F7B3
:1013B000809584238C93A8E3B0E0E8E3F0E080819B
:1013C000482F8A81282F30E081E090E0022E02C071
:1013D000880F991F0A94E2F7842B8C93C0C0A4E372
:1013E000B0E0E4E3F0E08081482F8A81282F30E0EC
:1013F00081E090E002C0880F991F2A95E2F780955E
:1014000084238C93A5E3B0E0E5E3F0E08081482FEE
:101410008A81282F30E081E090E0022E02C0880F00
:10142000991F0A94E2F7842B8C9399C0A1E3B0E052
:10143000E1E3F0E08081482F8A81282F30E081E0CD
:1014400090E002C0880F991F2A95E2F780958423C7
:101450008C93A2E3B0E0E2E3F0E08081482F8A8140
:10146000282F30E081E090E0022E02C0880F991F03
:101470000A94E2F7842B8C9372C08B81823009F03E
:101480006EC08981282F30E03D832C838C819D8123
:101490008130910549F12C813D81223031052CF4B8
:1014A0008C819D81009761F05AC02C813D81223052
:1014B000310571F18C819D8183309105E9F14FC037
:1014C000AAE3B0E0EAE3F0E08081482F8A81282F88
:1014D00030E081E090E0022E02C0880F991F0A944C
:1014E000E2F7842B8C933BC0A7E3B0E0E7E3F0E0A6
:1014F0008081482F8A81282F30E081E090E0022E01
:1015000002C0880F991F0A94E2F7842B8C9327C09E
:10151000A4E3B0E0E4E3F0E08081482F8A81282F43
:1015200030E081E090E0022E02C0880F991F0A94FB
:10153000E2F7842B8C9313C0A1E3B0E0E1E3F0E089
:101540008081482F8A81282F30E081E090E0022EB0
:1015500002C0880F991F0A94E2F7842B8C93299676
:101560000FB6F894DEBF0FBECDBFCF91DF910895C7
:10157000DF93CF93CDB7DEB72A970FB6F894DEBFCF
:101580000FBECDBF89836A838A818823D9F589817B
:10159000282F30E03A87298789859A8581309105FF
:1015A000E1F029853A85223031052CF489859A8528
:1015B000009761F0D2C029853A8522303105A1F02B
:1015C00089859A8583309105B1F0C7C0EAE3F0E0E0
:1015D0001082EBE3F0E01082C0C0E7E3F0E010829D
:1015E000E8E3F0E01082B9C0E4E3F0E01082E5E364
:1015F000F0E01082B2C0E1E3F0E01082E2E3F0E05C
:101600001082ABC08A81813009F03FC08981282FC8
:1016100030E038872F838F81988581309105E9F0FC
:101620002F813885223031052CF48F8198850097E1
:1016300061F093C02F81388522303105B1F08F8160
:10164000988583309105C9F088C0EAE3F0E0108204
:10165000EBE3F0E08FEF808380C0E7E3F0E01082FF
:10166000E8E3F0E08FEF808378C0E4E3F0E01082FD
:10167000E5E3F0E08FEF808370C0E1E3F0E01082FB
:10168000E2E3F0E08FEF808368C08A81823099F5D1
:101690008981282F30E03E832D838D819E8181308A
:1016A0009105D1F02D813E81223031052CF48D81C0
:1016B0009E81009761F051C02D813E81223031051D
:1016C00081F08D819E818330910581F046C0EAE3EF
:1016D000F0E08FEF808341C0E7E3F0E08FEF80839D
:1016E0003CC0E4E3F0E08FEF808337C0E1E3F0E05B
:1016F0008FEF808332C08981282F30E03C832B8399
:101700008B819C8181309105D1F02B813C812230ED
:1017100031052CF48B819C81009761F01EC02B81D8
:101720003C812230310581F08B819C818330910591
:1017300081F013C0EAE3F0E08A8180830EC0E7E322
:10174000F0E08A81808309C0E4E3F0E08A8180834D
:1017500004C0E1E3F0E08A8180832A960FB6F89412
:10176000DEBF0FBECDBFCF91DF910895DF93CF9342
:10177000CDB7DEB727970FB6F894DEBF0FBECDBF4B
:1017800089836A834B838B81813009F06FC08981A3
:10179000282F30E03F832E838E819F8181309105F9
:1017A00049F12E813F81223031052CF48E819F81B9
:1017B000009761F0D2C02E813F812230310571F156
:1017C0008E819F8183309105E9F1C7C0ABE3B0E022
:1017D000EBE3F0E08081482F8A81282F30E081E020
:1017E00090E0022E02C0880F991F0A94E2F7842B22
:1017F0008C93B3C0A8E3B0E0E8E3F0E08081482F29
:101800008A81282F30E081E090E0022E02C0880F0C
:10181000991F0A94E2F7842B8C939FC0A5E3B0E054
:10182000E5E3F0E08081482F8A81282F30E081E0D5
:1018300090E0022E02C0880F991F0A94E2F7842BD1
:101840008C938BC0A2E3B0E0E2E3F0E08081482F0C
:101850008A81282F30E081E090E0022E02C0880FBC
:10186000991F0A94E2F7842B8C9377C08B8188238D
:1018700009F073C08981282F30E03D832C838C814F
:101880009D818130910559F12C813D8122303105B6
:101890002CF48C819D81009769F05FC02C813D8183
:1018A0002230310589F18C819D818330910509F4C5
:1018B00040C053C0ABE3B0E0EBE3F0E08081482FE1
:1018C0008A81282F30E081E090E0022E02C0880F4C
:1018D000991F0A94E2F7809584238C933EC0A8E375
:1018E000B0E0E8E3F0E08081482F8A81282F30E0E3
:1018F00081E090E0022E02C0880F991F0A94E2F75F
:10190000809584238C9329C0A5E3B0E0E5E3F0E063
:101910008081482F8A81282F30E081E090E0022EDC
:1019200002C0880F991F0A94E2F7809584238C9354
:1019300014C0A2E3B0E0E2E3F0E08081482F8A81A6
:10194000282F30E081E090E0022E02C0880F991F1E
:101950000A94E2F7809584238C9327960FB6F89427
:10196000DEBF0FBECDBFCF91DF910895DF93CF9340
:10197000CDB7DEB728970FB6F894DEBF0FBECDBF48
:1019800089836A838A81813099F58981282F30E0A3
:1019900038872F838F81988581309105D1F02F81F1
:1019A0003885223031052CF48F819885009761F0BD
:1019B00083C02F8138852230310581F08F81988551
:1019C0008330910581F078C0EBE3F0E08FEF808306
:1019D00073C0E8E3F0E08FEF80836EC0E5E3F0E0F2
:1019E0008FEF808369C0E2E3F0E08FEF808364C013
:1019F0008A81882379F58981282F30E03E832D83E1
:101A00008D819E8181309105C9F02D813E812230EA
:101A100031052CF48D819E81009761F04DC02D81A0
:101A20003E812230310571F08D819E818330910598
:101A300069F042C0EBE3F0E010823EC0E8E3F0E082
:101A400010823AC0E5E3F0E0108236C0E2E3F0E055
:101A5000108232C08981282F30E03C832B838B8118
:101A60009C8181309105D1F02B813C812230310560
:101A70002CF48B819C81009761F01EC02B813C81EE
:101A80002230310581F08B819C818330910581F07A
:101A900013C0EBE3F0E08A8180830EC0E8E3F0E05E
:101AA0008A81808309C0E5E3F0E08A81808304C0F5
:101AB000E2E3F0E08A81808328960FB6F894DEBFD7
:101AC0000FBECDBFCF91DF910895DF93CF9300D0AC
:101AD00000D00F92CDB7DEB78A836B8319828A81DB
:101AE000282F30E03D832C834C815D8141305105AE
:101AF00041F18C819D818230910534F42C813D81AE
:101B00002115310561F052C04C815D814230510593
:101B100051F18C819D8183309105B9F147C0E9E392
:101B2000F0E08081282F30E08B81882F90E0A901A0
:101B300002C0559547958A95E2F7CA01817089835D
:101B400035C0E6E3F0E08081282F30E08B81882FDC
:101B500090E0A90102C0559547958A95E2F7CA0120
:101B60008170898323C0E3E3F0E08081282F30E097
:101B70008B81882F90E0A90102C0559547958A95E1
:101B8000E2F7CA018170898311C0E0E3F0E080814F
:101B9000282F30E08B81882F90E0A90102C0559555
:101BA00047958A95E2F7CA018170898389810F90F0
:101BB0000F900F900F900F90CF91DF910895DF93CA
:101BC000CF9300D000D0CDB7DEB78A8319828A8147
:101BD000282F30E03C832B838B819C8181309105C1
:101BE00049F12B813C81223031052CF48B819C8181
:101BF000009761F05AC02B813C812230310571F190
:101C00008B819C8183309105E9F14FC0E9E3F0E0DD
:101C100080818F3F19F481E0898347C0E9E3F0E0D8
:101C20008081882311F4198240C0E9E3F0E08081CB
:101C300089833BC0E6E3F0E080818F3F19F481E0C7
:101C4000898333C0E6E3F0E08081882311F41982B0
:101C50002CC0E6E3F0E08081898327C0E3E3F0E075
:101C600080818F3F19F481E089831FC0E3E3F0E0B6
:101C70008081882311F4198218C0E3E3F0E08081A9
:101C8000898313C0E0E3F0E080818F3F19F481E0A5
:101C900089830BC0E0E3F0E08081882311F419828E
:101CA00004C0E0E3F0E08081898389810F900F9088
:101CB0000F900F90CF91DF910895DF93CF93CDB721
:101CC000DEB780E064E041E00E94A80880E065E0C3
:101CD00041E00E94A80880E066E041E00E94A80878
:101CE00080E067E041E00E94A80880E063E042E015
:101CF0000E94A80880E062E042E00E94A80880E01C
:101D000061E042E00E94A80880E060E042E00E94BA
:101D1000A808CF91DF910895DF93CF93CDB7DEB7B9
:101D200028970FB6F894DEBF0FBECDBF8C8381E03D
:101D30008B838C81869586958A838C818370898339
:101D400080E063E041E00E94B60B80E062E041E0A9
:101D50000E94B60B80E061E041E00E94B60B80E09B
:101D600060E041E00E94B60B8981282F30E038877F
:101D70002F838F81988581309105D9F02F81388507
:101D8000223031052CF48F819885009761F022C0B4
:101D90002F8138852230310591F08F8198858330ED
:101DA000910599F017C080E063E040E00E94B60B17
:101DB00011C080E062E040E00E94B60B0BC080E002
:101DC00061E040E00E94B60B05C080E060E040E0CA
:101DD0000E94B60B8A81282F30E03E832D838D81AF
:101DE0009E8181309105E9F02D813E8122303105BF
:101DF0002CF48D819E81009761F02AC02D813E8157
:101E000022303105B1F08D819E8183309105C9F07A
:101E10001FC080E064E00E94650D8823C9F41B8226
:101E200017C080E065E00E94650D882389F41B825D
:101E30000FC080E066E00E94650D882349F41B8294
:101E400007C080E067E00E94650D882309F41B82CB
:101E50008B8128960FB6F894DEBF0FBECDBFCF9111
:101E6000DF910895DF93CF93CDB7DEB728970FB6F4
:101E7000F894DEBF0FBECDBF8C8381E08B838C8155
:101E8000869586958A838C818370898380E063E060
:101E900041E00E94B60B80E062E041E00E94B60B98
:101EA00080E061E041E00E94B60B80E060E041E04C
:101EB0000E94B60B8981282F30E038872F838F81CD
:101EC000988581309105D9F02F81388522303105F0
:101ED0002CF48F819885009761F022C02F8138857E
:101EE0002230310591F08F8198858330910599F0EA
:101EF00017C080E063E040E00E94B60B11C080E0B4
:101F000062E040E00E94B60B0BC080E061E040E080
:101F10000E94B60B05C080E060E040E00E94B60B76
:101F20008A81282F30E03E832D838D819E818130F0
:101F3000910519F12D813E81223031052CF48D81DE
:101F40009E81009761F042C02D813E812230310593
:101F500011F18D819E818330910559F137C080E068
:101F600064E00E94650D882389F51B8280E064E0AF
:101F70000E94650D8823D1F329C080E065E00E94AE
:101F8000650D882319F51B8280E065E00E94650DD0
:101F90008823D1F31BC080E066E00E94650D882392
:101FA000A9F41B8280E066E00E94650D8823D1F3CE
:101FB0000DC080E067E00E94650D882339F41B8224
:101FC00080E067E00E94650D8823D1F38B8128961D
:101FD0000FB6F894DEBF0FBECDBFCF91DF9108954D
:101FE000DF93CF9300D0CDB7DEB71A8280E189832B
:101FF0001A820BC08A810E94320F882319F48A81C9
:10200000898306C08A818F5F8A838A81803190F3B9
:1020100089810F900F90CF91DF910895DF93CF9337
:10202000CDB7DEB72F970FB6F894DEBF0FBECDBF8A
:102030001F860E94E51380E090E0A0EFB1E48B875B
:102040009C87AD87BE876B857C858D859E8520E0CE
:1020500030E04AEF54E40E941702DC01CB018F8389
:102060009887A987BA876F81788589859A8520E0C6
:1020700030E040E85FE30E941D0488232CF481E0F7
:1020800090E09E838D833FC06F81788589859A8596
:1020900020E03FEF4FE757E40E94BD0318164CF5D0
:1020A0006B857C858D859E8520E030E040E251E4A3
:1020B0000E941702DC01CB01BC01CD010E9441004E
:1020C000DC01CB019E838D830FC088EC90E09C8364
:1020D0008B838B819C810197F1F79C838B838D810E
:1020E0009E8101979E838D838D819E81009769F7E4
:1020F00014C06F81788589859A850E944100DC0132
:10210000CB019E838D838D819E819A838983898172
:102110009A810197F1F79A83898380E38F878F856E
:1021200088608F878F8584608F878F850E940F12CC
:1021300088E08F878F8584608F878F8581608F8708
:102140008F8582608F878F8582608F878F850E94C1
:102150000F1281E00E940F122F960FB6F894DEBF87
:102160000FBECDBFCF91DF910895DF93CF93CDB751
:10217000DEB781E00E940F12CF91DF910895DF93C7
:10218000CF930F92CDB7DEB7898389810E94FA126F
:102190000F90CF91DF910895DF93CF9300D00F92EE
:1021A000CDB7DEB79B838A8319820EC08981282F21
:1021B00030E08A819B81FC01E20FF31F80810E9445
:1021C000BF1089818F5F89838981282F30E08A81C0
:1021D0009B81FC01E20FF31F8081882339F70F9068
:1021E0000F900F90CF91DF910895DF93CF9300D0A0
:1021F0000F92CDB7DEB78A836B838A81882F90E0F8
:102200000024969587950794969587950794982F1F
:10221000802D982F8B81890F89838981806889839C
:1022200089810E940F120F900F900F90CF91DF9134
:102230000895EF92FF920F931F93DF93CF93CDB743
:10224000DEB72A970FB6F894DEBF0FBECDBF6F83FF
:10225000788789879A871B821C821D821E821A8238
:102260008F819885A985BA85BB239CF48F81988539
:10227000A985BA85B095A095909581959F4FAF4F50
:10228000BF4F8F839887A987BA878DE20E94BF10BE
:1022900045C08F819885A985BA850097A105B105AC
:1022A000E9F580E30E94BF1039C08B819C81AD812C
:1022B000BE812AE030E040E050E0BC01CD010E9448
:1022C000191F7B018C018F819885A985BA852AE029
:1022D00030E040E050E0BC01CD010E946D1FDC0108
:1022E000CB018E0D9F1DA01FB11F8B839C83AD83DF
:1022F000BE838F819885A985BA852AE030E040E0C9
:1023000050E0BC01CD010E946D1FDA01C9018F832D
:102310009887A987BA878A818F5F8A838F819885FA
:10232000A985BA850097A105B10509F0BECF2AC0DD
:102330008B819C81AD81BE812AE030E040E050E09D
:10234000BC01CD010E944B1FDC01CB018983898137
:10235000805D898389810E94BF108B819C81AD81C2
:10236000BE812AE030E040E050E0BC01CD010E9497
:102370004B1FDA01C9018B839C83AD83BE838A81A5
:1023800081508A838B819C81AD81BE810097A1059C
:10239000B10571F606C080E30E94BF108A818150AA
:1023A0008A838A818823B9F72A960FB6F894DEBF0C
:1023B0000FBECDBFCF91DF911F910F91FF90EF9096
:1023C0000895DF93CF9300D0CDB7DEB78A8319820B
:1023D00006C088E10E940F1289818F5F89839981ED
:1023E0008A819817B0F30F900F90CF91DF910895E5
:1023F000DF93CF9300D0CDB7DEB78A83198206C0B2
:102400008CE10E940F1289818F5F898399818A8173
:102410009817B0F30F900F90CF91DF910895DF934D
:10242000CF93CDB7DEB72F970FB6F894DEBF0FBEB0
:10243000CDBF8F8782E060E040E00E94B60B82E073
:1024400061E040E00E94B60B8F85982F917082E08A
:1024500066E0492F0E94B60B8F858695982F917064
:1024600082E067E0492F0E94B60B8F85869586959E
:10247000982F917082E065E0492F0E94B60B8F85FE
:10248000869586958695982F917083E063E0492F15
:102490000E94B60B8F8582958F70982F917083E084
:1024A00064E0492F0E94B60B8F85829586958770D0
:1024B000982F917083E065E0492F0E94B60B8F85BD
:1024C0008295869586958370982F917083E066E05B
:1024D000492F0E94B60B8F85982F991F9927991F16
:1024E00083E067E0492F0E94B60B82E062E041E0A2
:1024F0000E94B60B80E090E0A0E0B0E48B879C8760
:10250000AD87BE876B857C858D859E8520E030E01C
:102510004AEF54E40E941702DC01CB018F839887B5
:10252000A987BA876F81788589859A8520E030E010
:1025300040E85FE30E941D0488232CF481E090E0D2
:102540009E838D833FC06F81788589859A8520E041
:102550003FEF4FE757E40E94BD0318164CF56B851B
:102560007C858D859E8520E030E040E251E40E942C
:102570001702DC01CB01BC01CD010E944100DC014E
:10258000CB019E838D830FC088EC90E09C838B836E
:102590008B819C810197F1F79C838B838D819E8138
:1025A00001979E838D838D819E81009769F714C06A
:1025B0006F81788589859A850E944100DC01CB0175
:1025C0009E838D838D819E819A83898389819A815F
:1025D0000197F1F79A83898382E062E040E00E94EC
:1025E000B60B2F960FB6F894DEBF0FBECDBFCF91BE
:1025F000DF910895DF93CF93CDB7DEB72F970FB656
:10260000F894DEBF0FBECDBF8F8782E060E041E06F
:102610000E94B60B82E061E040E00E94B60B8F851D
:10262000982F917082E066E0492F0E94B60B8F854B
:102630008695982F917082E067E0492F0E94B60B33
:102640008F8586958695982F917082E065E0492F59
:102650000E94B60B8F85869586958695982F9170EA
:1026600083E063E0492F0E94B60B8F8582958F70BF
:10267000982F917083E064E0492F0E94B60B8F85FC
:10268000829586958770982F917083E065E0492F39
:102690000E94B60B8F858295869586958370982FBC
:1026A000917083E066E0492F0E94B60B8F85982FCA
:1026B000991F9927991F83E067E0492F0E94B60B65
:1026C00082E062E041E00E94B60B80E090E0A0E092
:1026D000B0E48B879C87AD87BE876B857C858D85B5
:1026E0009E8520E030E04AEF54E40E941702DC01AE
:1026F000CB018F839887A987BA876F817885898571
:102700009A8520E030E040E85FE30E941D048823C2
:102710002CF481E090E09E838D833FC06F817885AB
:1027200089859A8520E03FEF4FE757E40E94BD037B
:1027300018164CF56B857C858D859E8520E030E0F4
:1027400040E251E40E941702DC01CB01BC01CD0143
:102750000E944100DC01CB019E838D830FC088EC79
:1027600090E09C838B838B819C810197F1F79C8304
:102770008B838D819E8101979E838D838D819E8128
:10278000009769F714C06F81788589859A850E94C2
:102790004100DC01CB019E838D838D819E819A83D4
:1027A000898389819A810197F1F79A83898382E0ED
:1027B00062E040E00E94B60B2F960FB6F894DEBFA1
:1027C0000FBECDBFCF91DF910895DF93CF93CDB7EB
:1027D000DEB782E060E042E00E94A80882E061E0AB
:1027E00042E00E94A80882E062E042E00E94A8085D
:1027F00082E066E042E00E94A80882E067E042E0F2
:102800000E94A80882E065E042E00E94A80883E0F8
:1028100063E042E00E94A80883E064E042E00E9496
:10282000A80883E065E042E00E94A80883E066E033
:1028300042E00E94A80883E067E042E00E94A80806
:10284000CF91DF910895EF92FF920F931F93DF9343
:10285000CF93CDB7DEB76A970FB6F894DEBF0FBE41
:10286000CDBF0E940E100E945D0E188E1B8A1C8A1E
:102870001D8A1E8A8AE690E00E94CC100E94F00F0A
:10288000898F898D8031D1F3898D0E94F007898FDE
:102890000E94B510898D882F90E0A0E0B0E0BC01C7
:1028A000CD010E94191180E090E0AAEFB3E48B877C
:1028B0009C87AD87BE876B857C858D859E8520E056
:1028C00030E04AEF54E40E941702DC01CB018F8311
:1028D0009887A987BA876F81788589859A8520E04E
:1028E00030E040E85FE30E941D0488232CF481E07F
:1028F00090E09E838D833FC06F81788589859A851E
:1029000020E03FEF4FE757E40E94BD0318164CF557
:102910006B857C858D859E8520E030E040E251E42A
:102920000E941702DC01CB01BC01CD010E944100D5
:10293000DC01CB019E838D830FC088EC90E09C83EB
:102940008B838B819C810197F1F79C838B838D8195
:102950009E8101979E838D838D819E81009769F76B
:1029600014C06F81788589859A850E944100DC01B9
:10297000CB019E838D838D819E819A8389838981FA
:102980009A810197F1F79A838983898D813009F0C3
:10299000F0C00E94B51086E790E00E94CC101A8A21
:1029A00035C00E94F00F8F8B8F898031D1F38A89D7
:1029B000882311F40E94B5108B899C89AD89BE894A
:1029C0002AE030E040E050E0BC01CD010E94191F38
:1029D0007B018C018F890E94F007882F90E0A0E096
:1029E000B0E08E0D9F1DA01FB11F8B8B9C8BAD8BFC
:1029F000BE8B0E94B5108B899C89AD89BE89BC01B4
:102A0000CD010E9419118A898F5F8A8B8A8984304F
:102A100040F28B899C89AD89BE89873524E0920775
:102A200020E0A20720E0B20749F40E94B5108DE82B
:102A300090E00E94CC1089E58A8F8FC18B899C8998
:102A4000AD89BE89873524E0920720E0A20720E007
:102A5000B20709F481C10E94B5108AE990E00E9492
:102A6000CC10888D8F5F888F1B8A1C8A1D8A1E8AD6
:102A70008AEA90E00E94CC10198A35C00E94F00FBB
:102A80008F8B8F898031D1F38989882311F40E943B
:102A9000B5108B899C89AD89BE892AE030E040E081
:102AA00050E0BC01CD010E94191F7B018C018F8970
:102AB0000E94F007882F90E0A0E0B0E08E0D9F1DEF
:102AC000A01FB11F8B8B9C8BAD8BBE8B0E94B51052
:102AD0008B899C89AD89BE89BC01CD010E941911E9
:102AE00089898F5F898B8989843040F28B899C89A1
:102AF000AD89BE89873524E0920720E0A20720E057
:102B0000B20749F40E94B5108DE890E00E94CC1005
:102B100089E58A8F22C18B899C89AD89BE898735D9
:102B200024E0920720E0A20720E0B20749F00E94CB
:102B3000B5108AE990E00E94CC10888D8F5F888F55
:102B4000888D833008F490CF888D833009F004C1DC
:102B50000E94B51083EC90E00E94CC1081E060E010
:102B60000E94F51084ED90E00E94CC108EE48A8FD4
:102B7000F4C0898D823009F0EFC00E94B51086E75D
:102B800090E00E94CC10188A35C00E94F00F8F8B05
:102B90008F898031D1F38889882311F40E94B51080
:102BA0008B899C89AD89BE892AE030E040E050E005
:102BB000BC01CD010E94191F7B018C018F890E94ED
:102BC000F007882F90E0A0E0B0E08E0D9F1DA01FC1
:102BD000B11F8B8B9C8BAD8BBE8B0E94B5108B89EC
:102BE0009C89AD89BE89BC01CD010E9419118889DB
:102BF0008F5F888B8889843040F28B899C89AD896E
:102C0000BE898E3A28E0920720E0A20720E0B207B2
:102C100049F40E94B51082EE90E00E94CC1089E544
:102C20008A8F9BC08B899C89AD89BE898E3A28E0AA
:102C3000920720E0A20720E0B20709F48DC00E94AD
:102C4000B5108AE990E00E94CC10888D8F5F888F44
:102C50001B8A1C8A1D8A1E8A8AEA90E00E94CC1078
:102C60001F8635C00E94F00F8F8B8F898031D1F382
:102C70008F85882311F40E94B5108B899C89AD89BA
:102C8000BE892AE030E040E050E0BC01CD010E9466
:102C9000191F7B018C018F890E94F007882F90E01B
:102CA000A0E0B0E08E0D9F1DA01FB11F8B8B9C8BF1
:102CB000AD8BBE8B0E94B5108B899C89AD89BE8976
:102CC000BC01CD010E9419118F858F5F8F878F8581
:102CD000843040F28B899C89AD89BE898E3A28E088
:102CE000920720E0A20720E0B20749F40E94B51045
:102CF00082EE90E00E94CC1089E58A8F2EC08B89ED
:102D00009C89AD89BE898E3A28E0920720E0A2070F
:102D100020E0B20749F00E94B5108AE990E00E94D5
:102D2000CC10888D8F5F888F888D833008F490CF8A
:102D3000888D833089F40E94B51083EC90E00E9466
:102D4000CC1081E060E00E94F51084ED90E00E94DC
:102D5000CC108EE48A8F01C01A8E8A8D6A960FB6C7
:102D6000F894DEBF0FBECDBFCF91DF911F910F91C1
:102D7000FF90EF900895DF93CF93CDB7DEB782E059
:102D800060E042E00E94A80882E061E042E00E9428
:102D9000A80882E062E042E00E94A80882E063E0C6
:102DA00042E00E94A80882E064E042E00E94A80895
:102DB00082E065E042E00E94A80882E066E042E02E
:102DC0000E94A808CF91DF910895DF93CF9300D0A0
:102DD0000F92CDB7DEB789838981282F30E03B83FE
:102DE0002A838A819B818530910509F401C12A815A
:102DF0003B81263031051CF58A819B81823091050B
:102E000009F48AC02A813B81233031055CF48A8130
:102E10009B810097C9F12A813B812130310509F45A
:102E200057C0BEC18A819B818330910509F498C047
:102E30002A813B812430310509F4B6C0B1C18A81B1
:102E40009B818830910509F43FC12A813B8129305B
:102E500031056CF48A819B818630910509F4ECC0C0
:102E60002A813B812730310509F40AC199C18A8141
:102E70009B818930910509F44BC12A813B812A301D
:102E8000310509F469C18CC182E060E041E00E9433
:102E9000B60B82E061E041E00E94B60B82E062E0A6
:102EA00041E00E94B60B82E063E041E00E94B60B75
:102EB00082E064E041E00E94B60B82E065E041E020
:102EC0000E94B60B82E066E040E00E94B60B8BC128
:102ED00082E060E040E00E94B60B82E061E041E009
:102EE0000E94B60B82E062E041E00E94B60B82E0F5
:102EF00063E040E00E94B60B82E064E040E00E94A4
:102F0000B60B82E065E040E00E94B60B82E066E02E
:102F100040E00E94B60B67C182E060E041E00E94A1
:102F2000B60B82E061E041E00E94B60B82E062E015
:102F300040E00E94B60B82E063E041E00E94B60BE5
:102F400082E064E041E00E94B60B82E065E040E090
:102F50000E94B60B82E066E041E00E94B60B43C1DE
:102F600082E060E041E00E94B60B82E061E041E077
:102F70000E94B60B82E062E041E00E94B60B82E064
:102F800063E041E00E94B60B82E064E040E00E9412
:102F9000B60B82E065E040E00E94B60B82E066E09E
:102FA00041E00E94B60B1FC182E060E040E00E9459
:102FB000B60B82E061E041E00E94B60B82E062E085
:102FC00041E00E94B60B82E063E040E00E94B60B55
:102FD00082E064E040E00E94B60B82E065E041E000
:102FE0000E94B60B82E066E041E00E94B60BFBC097
:102FF00082E060E041E00E94B60B82E061E040E0E8
:103000000E94B60B82E062E041E00E94B60B82E0D3
:1030100063E041E00E94B60B82E064E040E00E9481
:10302000B60B82E065E041E00E94B60B82E066E00C
:1030300041E00E94B60BD7C082E060E041E00E9410
:10304000B60B82E061E040E00E94B60B82E062E0F5
:1030500041E00E94B60B82E063E041E00E94B60BC3
:1030600082E064E041E00E94B60B82E065E041E06E
:103070000E94B60B82E066E041E00E94B60BB3C04E
:1030800082E060E041E00E94B60B82E061E041E056
:103090000E94B60B82E062E041E00E94B60B82E043
:1030A00063E040E00E94B60B82E064E040E00E94F2
:1030B000B60B82E065E040E00E94B60B82E066E07D
:1030C00040E00E94B60B8FC082E060E041E00E94C9
:1030D000B60B82E061E041E00E94B60B82E062E064
:1030E00041E00E94B60B82E063E041E00E94B60B33
:1030F00082E064E041E00E94B60B82E065E041E0DE
:103100000E94B60B82E066E041E00E94B60B6BC005
:1031100082E060E041E00E94B60B82E061E041E0C5
:103120000E94B60B82E062E041E00E94B60B82E0B2
:1031300063E041E00E94B60B82E064E040E00E9460
:10314000B60B82E065E041E00E94B60B82E066E0EB
:1031500041E00E94B60B47C082E060E040E00E9480
:10316000B60B82E061E040E00E94B60B82E062E0D4
:1031700040E00E94B60B82E063E040E00E94B60BA4
:1031800082E064E040E00E94B60B82E065E040E04F
:103190000E94B60B82E066E040E00E94B60B23C0BE
:1031A00082E060E040E00E94B60B82E061E040E037
:1031B0000E94B60B82E062E040E00E94B60B82E023
:1031C00063E040E00E94B60B82E064E040E00E94D1
:1031D000B60B82E065E040E00E94B60B82E066E05C
:1031E00040E00E94B60B0F900F900F90CF91DF91AF
:1031F0000895DF93CF93CDB7DEB781E060E042E082
:103200000E94A80881E061E042E00E94A80881E0F5
:1032100062E042E00E94A80881E063E042E00E9490
:10322000A808CF91DF910895DF93CF93CDB7DEB794
:10323000EE970FB6F894DEBF0FBECDBF9EAF8DAF39
:103240008DAD9EADCC01A0E0B0E0BC01CD010E94EF
:10325000A104DC01CB01BC01CD0120E030E044E35E
:103260005EE30E941103DC01CB01BC01CD0120E033
:1032700030E040E850E40E941103DC01CB01BC01C6
:10328000CD010E944100DC01CB019CAF8BAF1AAE97
:1032900019AE1DC281E060E040E00E94B60B81E003
:1032A00061E040E00E94B60B81E062E040E00E94F5
:1032B000B60B81E063E041E00E94B60B80E090E055
:1032C000A0E2B1E48DAB9EABAFABB8AF6DA97EA968
:1032D0008FA998AD20E030E04AEF54E40E94170235
:1032E000DC01CB0189AB9AABABABBCAB69A97AA9CA
:1032F0008BA99CA920E030E040E85FE30E941D0418
:1033000088232CF481E090E098AB8FA73FC069A997
:103310007AA98BA99CA920E03FEF4FE757E40E94D0
:10332000BD0318164CF56DA97EA98FA998AD20E0B4
:1033300030E040E251E40E941702DC01CB01BC0105
:10334000CD010E944100DC01CB0198AB8FA70FC0DB
:1033500088EC90E09EA78DA78DA59EA50197F1F71B
:103360009EA78DA78FA598A9019798AB8FA78FA52A
:1033700098A9009769F714C069A97AA98BA99CA993
:103380000E944100DC01CB0198AB8FA78FA598A9C3
:103390009CA78BA78BA59CA50197F1F79CA78BA752
:1033A00081E060E040E00E94B60B81E061E040E037
:1033B0000E94B60B81E062E041E00E94B60B81E022
:1033C00063E040E00E94B60B80E090E0A0E2B1E450
:1033D0008FA398A7A9A7BAA76FA178A589A59AA531
:1033E00020E030E04AEF54E40E941702DC01CB01F8
:1033F0008BA39CA3ADA3BEA36BA17CA18DA19EA119
:1034000020E030E040E85FE30E941D0488232CF4B4
:1034100081E090E09AA389A33FC06BA17CA18DA11C
:103420009EA120E03FEF4FE757E40E94BD0318162E
:103430004CF56FA178A589A59AA520E030E040E27F
:1034400051E40E941702DC01CB01BC01CD010E94B6
:103450004100DC01CB019AA389A30FC088EC90E066
:1034600098A38F8F8F8D98A10197F1F798A38F8FD5
:1034700089A19AA101979AA389A389A19AA10097EA
:1034800069F714C06BA17CA18DA19EA10E9441008F
:10349000DC01CB019AA389A389A19AA19E8F8D8F6C
:1034A0008D8D9E8D0197F1F79E8F8D8F81E060E06D
:1034B00040E00E94B60B81E061E041E00E94B60B63
:1034C00081E062E040E00E94B60B81E063E040E012
:1034D0000E94B60B80E090E0A0E2B1E4898F9A8F61
:1034E000AB8FBC8F698D7A8D8B8D9C8D20E030E009
:1034F0004AEF54E40E941702DC01CB018D8B9E8BB6
:10350000AF8BB88F6D897E898F89988D20E030E0F0
:1035100040E85FE30E941D0488232CF481E090E0E2
:103520009C8B8B8B3FC06D897E898F89988D20E025
:103530003FEF4FE757E40E94BD0318164CF5698D25
:103540007A8D8B8D9C8D20E030E040E251E40E942A
:103550001702DC01CB01BC01CD010E944100DC015E
:10356000CB019C8B8B8B0FC088EC90E09A8B898B66
:1035700089899A890197F1F79A8B898B8B899C8924
:1035800001979C8B8B8B8B899C89009769F714C062
:103590006D897E898F89988D0E944100DC01CB0165
:1035A0009C8B8B8B8B899C89988B8F878F85988937
:1035B0000197F1F7988B8F8781E060E041E00E94EE
:1035C000B60B81E061E040E00E94B60B81E062E072
:1035D00040E00E94B60B81E063E040E00E94B60B41
:1035E00080E090E0A0E2B1E48B879C87AD87BE8746
:1035F0006B857C858D859E8520E030E04AEF54E424
:103600000E941702DC01CB018F839887A987BA87B4
:103610006F81788589859A8520E030E040E85FE316
:103620000E941D0488232CF481E090E09E838D830A
:103630003FC06F81788589859A8520E03FEF4FE70D
:1036400057E40E94BD0318164CF56B857C858D856B
:103650009E8520E030E040E251E40E941702DC0148
:10366000CB01BC01CD010E944100DC01CB019E8356
:103670008D830FC088EC90E09C838B838B819C8131
:103680000197F1F79C838B838D819E8101979E83A7
:103690008D838D819E81009769F714C06F81788535
:1036A00089859A850E944100DC01CB019E838D8330
:1036B0008D819E819A83898389819A810197F1F70F
:1036C0009A83898389AD9AAD01969AAF89AF29AD66
:1036D0003AAD8BAD9CAD2817390708F4DBCDEE96DB
:1036E0000FB6F894DEBF0FBECDBFCF91DF91089526
:1036F000DF93CF93CDB7DEB7EE970FB6F894DEBF6A
:103700000FBECDBF9EAF8DAF8DAD9EADCC01A0E005
:10371000B0E0BC01CD010E94A104DC01CB01BC01E1
:10372000CD0120E030E044E35EE30E941103DC01C0
:10373000CB01BC01CD0120E030E040E850E40E9424
:103740001103DC01CB01BC01CD010E944100DC0171
:10375000CB019CAF8BAF1AAE19AE1DC281E060E009
:1037600041E00E94B60B81E061E040E00E94B60BB0
:1037700081E062E040E00E94B60B81E063E040E05F
:103780000E94B60B80E090E0A0E2B1E48DAB9EAB6E
:10379000AFABB8AF6DA97EA98FA998AD20E030E09E
:1037A0004AEF54E40E941702DC01CB0189AB9AABCB
:1037B000ABABBCAB69A97AA98BA99CA920E030E08E
:1037C00040E85FE30E941D0488232CF481E090E030
:1037D00098AB8FA73FC069A97AA98BA99CA920E0C3
:1037E0003FEF4FE757E40E94BD0318164CF56DA953
:1037F0007EA98FA998AD20E030E040E251E40E941C
:103800001702DC01CB01BC01CD010E944100DC01AB
:10381000CB0198AB8FA70FC088EC90E09EA78DA737
:103820008DA59EA50197F1F79EA78DA78FA598A9B5
:10383000019798AB8FA78FA598A9009769F714C037
:1038400069A97AA98BA99CA90E944100DC01CB013E
:1038500098AB8FA78FA598A99CA78BA78BA59CA594
:103860000197F1F79CA78BA781E060E040E00E9400
:10387000B60B81E061E041E00E94B60B81E062E0BE
:1038800040E00E94B60B81E063E040E00E94B60B8E
:1038900080E090E0A0E2B1E48FA398A7A9A7BAA71F
:1038A0006FA178A589A59AA520E030E04AEF54E4FD
:1038B0000E941702DC01CB018BA39CA3ADA3BEA386
:1038C0006BA17CA18DA19EA120E030E040E85FE3E8
:1038D0000E941D0488232CF481E090E09AA389A320
:1038E0003FC06BA17CA18DA19EA120E03FEF4FE7DF
:1038F00057E40E94BD0318164CF56FA178A589A561
:103900009AA520E030E040E251E40E941702DC0179
:10391000CB01BC01CD010E944100DC01CB019AA387
:1039200089A30FC088EC90E098A38F8F8F8D98A10A
:103930000197F1F798A38F8F89A19AA101979AA374
:1039400089A389A19AA1009769F714C06BA17CA1F2
:103950008DA19EA10E944100DC01CB019AA389A305
:1039600089A19AA19E8F8D8F8D8D9E8D0197F1F7E4
:103970009E8F8D8F81E060E040E00E94B60B81E079
:1039800061E040E00E94B60B81E062E041E00E940D
:10399000B60B81E063E040E00E94B60B80E090E06F
:1039A000A0E2B1E4898F9A8FAB8FBC8F698D7A8D3D
:1039B0008B8D9C8D20E030E04AEF54E40E9417028A
:1039C000DC01CB018D8B9E8BAF8BB88F6D897E898F
:1039D0008F89988D20E030E040E85FE30E941D046D
:1039E00088232CF481E090E09C8B8B8B3FC06D8909
:1039F0007E898F89988D20E03FEF4FE757E40E9442
:103A0000BD0318164CF5698D7A8D8B8D9C8D20E049
:103A100030E040E251E40E941702DC01CB01BC011E
:103A2000CD010E944100DC01CB019C8B8B8B0FC030
:103A300088EC90E09A8B898B89899A890197F1F7B4
:103A40009A8B898B8B899C8901979C8B8B8B8B891B
:103A50009C89009769F714C06D897E898F89988D3C
:103A60000E944100DC01CB019C8B8B8B8B899C8954
:103A7000988B8F878F8598890197F1F7988B8F871F
:103A800081E060E040E00E94B60B81E061E040E050
:103A90000E94B60B81E062E040E00E94B60B81E03C
:103AA00063E041E00E94B60B80E090E0A0E2B1E468
:103AB0008B879C87AD87BE876B857C858D859E8532
:103AC00020E030E04AEF54E40E941702DC01CB0111
:103AD0008F839887A987BA876F81788589859A852A
:103AE00020E030E040E85FE30E941D0488232CF4CE
:103AF00081E090E09E838D833FC06F8178858985CA
:103B00009A8520E03FEF4FE757E40E94BD03181667
:103B10004CF56B857C858D859E8520E030E040E20C
:103B200051E40E941702DC01CB01BC01CD010E94CF
:103B30004100DC01CB019E838D830FC088EC90E0B7
:103B40009C838B838B819C810197F1F79C838B8372
:103B50008D819E8101979E838D838D819E810097AB
:103B600069F714C06F81788589859A850E94410024
:103B7000DC01CB019E838D838D819E819A83898315
:103B800089819A810197F1F79A83898389AD9AADEA
:103B900001969AAF89AF29AD3AAD8BAD9CAD281790
:103BA000390708F4DBCDEE960FB6F894DEBF0FBEF2
:103BB000CDBFCF91DF910895DF93CF93CDB7DEB71F
:103BC000A0E4B0E0E0E4F0E0808180688C9383E0E2
:103BD00060E040E00E94A80883E061E042E00E94CB
:103BE000A808A0E4B0E0E0E4F0E08081877F8C9357
:103BF000A0E4B0E0E0E4F0E080818F7E8C93A0E46C
:103C0000B0E0E0E4F0E0808180628C93A0E4B0E07A
:103C1000E0E4F0E080818F7B8C93E9E2F0E087E6DE
:103C20008083A0E4B0E0E0E4F0E0808182608C93E7
:103C3000A0E4B0E0E0E4F0E0808184608C93AAE24C
:103C4000B0E0EAE2F0E080818B7F8C93AAE2B0E002
:103C5000EAE2F0E0808180618C93AAE2B0E0EAE2DF
:103C6000F0E0808188608C93CF91DF910895DF939D
:103C7000CF930F92CDB7DEB78983ECE2F0E0898174
:103C80008083EBE2F0E08081829586958695837053
:103C9000882F90E081709070009799F30F90CF91EA
:103CA000DF910895DF93CF93CDB7DEB7EBE2F0E07D
:103CB00080818823DCF7ECE2F0E08081CF91DF9116
:103CC0000895DF93CF93CDB7DEB760970FB6F89422
:103CD000DEBF0FBECDBF188A0E94DC1D0E94F918FE
:103CE00083E062E041E00E94A80883E062E00E9475
:103CF000650D8130D1F30E9423148F878F850E9438
:103D0000371E8F85893509F07AC086E990E00E94D8
:103D1000141980E090E4ACE9B5E48B879C87AD870B
:103D2000BE876B857C858D859E8520E030E04AEFDF
:103D300054E40E941702DC01CB018F839887A98786
:103D4000BA876F81788589859A8520E030E040E8E0
:103D50005FE30E941D0488232CF481E090E09E83A1
:103D60008D833FC06F81788589859A8520E03FEFFC
:103D70004FE757E40E94BD0318164CF56B857C8510
:103D80008D859E8520E030E040E251E40E941702DC
:103D9000DC01CB01BC01CD010E944100DC01CB0163
:103DA0009E838D830FC088EC90E09C838B838B81F6
:103DB0009C810197F1F79C838B838D819E81019774
:103DC0009E838D838D819E81009769F714C06F81DA
:103DD000788589859A850E944100DC01CB019E830C
:103DE0008D838D819E819A83898389819A810197B0
:103DF000F1F79A83898386E990E00E94781B0E94FC
:103E0000521E853449F48889882331F486E990E08C
:103E10000E94141981E0888B0E94521E833579F725
:103E20008889813061F786E990E00E94781B188AC2
:103E3000E6CF629FD001739FF001829FE00DF11DDC
:103E4000649FE00DF11D929FF00D839FF00D749F14
:103E5000F00D659FF00D9927729FB00DE11DF91FC0
:103E6000639FB00DE11DF91FBD01CF01112408951D
:103E700097FB092E07260AD077FD04D049D006D03B
:103E800000201AF4709561957F4F0895F6F790958C
:103E900081959F4F0895A1E21A2EAA1BBB1BFD011D
:103EA0000DC0AA1FBB1FEE1FFF1FA217B307E40719
:103EB000F50720F0A21BB30BE40BF50B661F771F71
:103EC000881F991F1A9469F7609570958095909551
:103ED0009B01AC01BD01CF01089597FB092E05267A
:103EE0000ED057FD04D0D7DF0AD0001C38F450950F
:103EF0004095309521953F4F4F4F5F4F0895F6F70E
:103F000090958095709561957F4F8F4F9F4F089545
:103F1000AA1BBB1B51E107C0AA1FBB1FA617B707EF
:103F200010F0A61BB70B881F991F5A95A9F780950B
:103F30009095BC01CD0108952F923F924F925F92D0
:103F40006F927F928F929F92AF92BF92CF92DF92A9
:103F5000EF92FF920F931F93CF93DF93CDB7DEB70E
:103F6000CA1BDB0B0FB6F894DEBF0FBECDBF0994A2
:103F70002A88398848885F846E847D848C849B84F9
:103F8000AA84B984C884DF80EE80FD800C811B8107
:103F9000AA81B981CE0FD11D0FB6F894DEBF0FBE36
:0A3FA000CDBFED010895F894FFCFA6
:103FAA00526573756C74203D200073656C6563748B
:103FBA00207573657200456E74657220557365725B
:103FCA00312050617373776F72643A200057656CC1
:103FDA00636F6D65204164656C0057726F6E672070
:103FEA0050617373776F72642000456E7465722036
:103FFA00436F72726563742050617373776F726472
:10400A003A2000796F7520757365203320747261C8
:10401A00696C730073797374656D20636C6F736573
:10402A00640057656C636F6D65204D6F68616D65DF
:10403A006400000000000000000000010202030307
:10404A000303040404040404040405050505050522
:10405A000505050505050505050506060606060600
:10406A0006060606060606060606060606060606E6
:10407A0006060606060606060606070707070707D0
:10408A0007070707070707070707070707070707B6
:10409A0007070707070707070707070707070707A6
:1040AA000707070707070707070707070707070796
:1040BA000707070707070707070708080808080880
:1040CA000808080808080808080808080808080866
:1040DA000808080808080808080808080808080856
:1040EA000808080808080808080808080808080846
:1040FA000808080808080808080808080808080836
:10410A000808080808080808080808080808080825
:10411A000808080808080808080808080808080815
:10412A000808080808080808080808080808080805
:0A413A00080808080808080808082B
:00000001FF
